:0C800000F8B500BFF8BC08BC9E467047F5
:1080100010B50123C2B00024CDE900340A490B4851
:1080200023464FF4007200F0EBFF012808D0084906
:1080300002A802F051FE044902AA204600F0FEFD0B
:1080400001F04EF9FEE700BF63D00000B18C0000E4
:10805000C9D700000348044B834202D0034B03B14D
:108060001847704770FE000070FE0000000000001E
:108070000548064B1B1AD90F01EBA301491002D08A
:10808000034B03B11847704770FE000070FE0000FC
:108090000000000010B5064C237843B9FFF7DAFF63
:1080A000044B13B10448AFF300800123237010BDCB
:1080B00070FE0000000000009CED000008B5044BBD
:1080C0001BB104490448AFF30080BDE80840CFE786
:1080D0000000000074FE00009CED0000A3F5803A53
:1080E000704700BF154B002B08BF114B9D46FFF793
:1080F000F5FF00218B460F461148124A121A02F072
:1081000079FE0C4B002B00D098470B4B002B00D076
:1081100098470020002104000D000B4802F08AFF60
:1081200002F038FE20002900FFF772FF02F070FF16
:108130000000080000000000000000000000000037
:1081400070FE00004042010069B4000000B5D0F8A4
:108150002C32B3F5007FC1B00FD30C4A4FF48071BD
:10816000684602F0AFFF002009496A4600F066FD4C
:108170006FF0050041B05DF804FB5A1CC0F82C22DA
:10818000184480F82A100020F4E700BF48D000000F
:1081900063D0000038B50D4684210446FFF7D6FFB2
:1081A00008B1012038BD290E2046FFF7CFFF002877
:1081B000F7D1C5F307412046FFF7C8FF0028F0D1EB
:1081C000C5F307212046FFF7C1FF0028E9D1E9B236
:1081D0002046FFF7BBFF003818BF0120E2E70F2A57
:1081E00070B505460E46144606D862F05F01C9B266
:1081F000FFF7ACFF34441AE0FF2A0BD8D121FFF778
:10820000A5FFC8B9E1B22846FFF7A0FF003818BFA4
:108210000120EFE7D221FFF799FF68B9C4F30721E6
:108220002846ECE716F8011B2846FFF78FFFA64209
:1082300001D00028F6D070BD0120DBE770B50E46F6
:10824000F82104461546FFF781FF08B1012070BDF3
:10825000082231462046FFF7C2FF0028F6D1082247
:1082600029462046FFF7BBFF0028EFD1F02120462A
:10827000FFF76CFF003818BF0120E8E710B5F921BF
:108280000446FFF763FF08B1012010BDF02120462E
:10829000FFF75CFF01460028F6D12046FFF756FFA6
:1082A00001460028F0D12046FFF750FF0146002884
:1082B000EAD12046FFF74AFF0028E5D1F121204608
:1082C000FFF744FF003818BF0120DEE770B5D0F893
:1082D000303400F51971342BC0B08CBF343B2023EF
:1082E0000C46002202F10C05AB420BD81749684638
:1082F00002F0F2FC002016496A4600F09FFC6FF085
:1083000002001EE014F8016BF02E02F101051AD1F3
:108310002678842E17D16679842E14D11144012237
:10832000D1F8073042771BBA43620A4A4FF4807192
:10833000684602F0C7FE022005496A4600F07EFC4E
:10834000002040B070BD2A46CCE700BF86D00000B8
:1083500063D0000068D0000010B5D0F83034002B96
:10836000C0B000F50C7208BF4FF40073013B042B42
:1083700009DC1749684602F0AFFC16496A4600203E
:1083800000F05CFC18E0D15CF929EFD11A4412F836
:10839000044CACB1104A23464FF48071684602F099
:1083A00091FE0C496A46002000F048FC012C0CD0DC
:1083B000052C07D02E2C08D06FF0020040B010BD65
:1083C0002046FBE76FF00500F8E76FF00300F5E7E4
:1083D000D1D0000063D00000B4D0000010B54FF43D
:1083E0000072044600212A3002F004FD3423C4F850
:1083F0002C3210BD2DE9F047D0F82C62044600F174
:108400002A097542C2B0A6F114038846142200213D
:1084100005F0030548461D4402F0ECFC238D84F86A
:1084200031301A0A2B0E84F83A302B0C84F83B308A
:108430002B0A84F8302084F83C3084F83D50182210
:10844000002104F13E0002F0D5FC636A84F841305B
:108450001A0E84F83E201A0C84F83F201A0A236A68
:1084600084F840201A0EA6F12C0A84F842201A0C37
:1084700084F8432084F845301A0A4FEA1A6384F8D6
:1084800052304FEA1A43A6F1340784F853304FEACA
:108490001A2384F854303B0E84F85A303B0C84F88D
:1084A0005B303B0A84F85C300025A36884F84420E4
:1084B00084F85D7084F855A0C4F85650009327687E
:1084C00033464A4641460120B847031E0FDA164A92
:1084D0004FF4807102A802F0F5FD2846134902AA64
:1084E00000F0ACFB4FF0FF3042B0BDE8F0870A204F
:1084F00004F50C7700F09DFB4FF4007229463846D6
:1085000002F078FCA368009366684FF400733A4663
:1085100041460120B047031E01DA054AD8E7C4F8F6
:1085200030342846E0E700BFF1D0000063D00000FF
:1085300009D1000030B50546C1B018B103680BB1D0
:10854000436863B92249684602F0C6FB21496A467E
:10855000002000F073FB0024204641B030BD40F203
:10856000344000F04CFB044638B91B49684602F021
:10857000B3FB18496A462046EBE740F2344200213B
:1085800002F038FC95E80700412384E807002362E5
:1085900000F03BFB0546E06060B91049684602F018
:1085A0009BFB28460B496A4600F048FB204600F03A
:1085B00028FBD0E7236A0A4A4FF48071684602F02C
:1085C00081FD04496A46022000F038FBC4E700BF81
:1085D00021D1000063D0000053D1000074D100000D
:1085E0009CD100002DE9F04F8846C5B00446002814
:1085F00000F0B780C06800F00BFB2046FFF7EEFEEE
:1086000001212046FFF7F6FE054648B1564904A869
:1086100002F062FB554904AA002000F00FFB23E0A2
:10862000D4F83032DFF844B120611BBA029304F170
:10863000100304F50C7703936061A0614FF0080903
:10864000029B09F1040604339E4214D9268A002EA7
:1086500063D1474904A802F03FFB444904AA3046CD
:1086600000F0ECFA6FF00205E06800F0D7FA284657
:1086700045B0BDE8F08F37F809A007EB09029AFA78
:10868000BAFABAF5007F92F8039027D040F203239C
:108690009A4535D0BAF1020F1ED10123A375BB5DF7
:1086A000C3F34003E375BA5DC2F380022276B95D7D
:1086B000C1F300116176B85DC0F34010A076CDE93A
:1086C000002104A82B4A4FF4807102F0FBFC04AA9D
:1086D0005946022000F0B2FAB144B1E701232374F5
:1086E000BB5B5BBA6382D28852BA91B2A282224A41
:1086F00000919BB24FF4807104A802F0E3FCE6E71E
:1087000001236374BB5B5BBA6382D28852BA91B2B5
:10871000A2829BB2194A0091ECE7638A2385012368
:108720002377B8F1000F08D0039B03CBC8F80000F3
:10873000C8F804101868C8F80800237E617C01930B
:10874000638A0F4A00930F4B04A8002918BF1346F1
:108750000D4A4FF4807102F0B5FC044904AA0220CE
:108760005BE76FF0050582E7C5D1000063D000002C
:1087700061D20000E6D1000013D200003AD200001E
:108780008AD20000C3D100008CD20000F0B50E46A2
:10879000C3B01546044680B1A1B1202A12D92023C6
:1087A00000934FF48071134602A8494A02F08AFCF4
:1087B000484902AA002000F041FA6FF0050528465A
:1087C00043B0F0BD277F5FB9434902A802F084FAA5
:1087D000404902AA384600F031FA6FF00205EEE790
:1087E000E06800F015FA637F63B13C4902A802F02B
:1087F00073FA384902AA002000F020FAE06800F07D
:108800000DFAEAE72046FFF7E9FD354A35492046EB
:10881000FFF714FD002855D1216A2046FFF7BAFC66
:1088200000284FD1304908222046FFF7D8FC002805
:1088300048D101212046FFF789FC5EB355B30028DB
:1088400040D1F2212046FFF781FC0146D0BB2046F3
:10885000FFF77CFCB0BB2A4631462046FFF7BFFC41
:1088600080BBF3212046FFF771FC58BBF221204664
:10887000FFF76CFC30BB03212046FFF767FC08BB09
:108880001A4908222046FFF7AAFCD8B9F32120464E
:10889000FFF75CFCB0B9F1212046FFF757FC88B91F
:1088A0002046FFF7EBFC68B9218D2046FFF7A2FDBB
:1088B000054618B92046FFF709FD0546E06800F0B7
:1088C000ADF97CE7E06800F0A9F9012577E700BF82
:1088D000C5D2000063D00000F1D2000029D300000F
:1088E00084E20000A4E200009CE200008CE20000B0
:1088F00030B50546C1B0002836D0C06800F088F910
:108900006C7F3CB91A49684602F0E6F919496A4693
:1089100001201EE02846FFF761FDFA212846FFF7F7
:1089200015FC044628B1E86800F078F9204641B00B
:1089300030BD298D2846FFF75DFD00236B776B6204
:10894000044648B90C49684602F0C6F909496A4626
:10895000022000F073F9E6E70346084A4FF48071FD
:10896000684602F0AFFBD1E76FF00504DEE700BF19
:1089700063D3000063D0000088D30000A4D30000BC
:1089800010B50446C0B0E0B1437F5BB10E49684604
:1089900002F0A2F901200D496A4600F04FF9204685
:1089A000FFF7A6FFE06800F040F9204600F029F943
:1089B0000749684602F090F904496A46022000F02F
:1089C0003DF940B010BD00BFD9D3000063D0000016
:1089D0001CD4000030B50446C1B0002844D0C068A3
:1089E00000F016F9657F85B92149684602F074F9EF
:1089F000284620496A4600F021F9E06800F00EF9A7
:108A00006FF00205284641B030BD2046FFF7E6FC76
:108A1000194A1A492046FFF711FC00BBF1212046F4
:108A2000FFF794FBD8B92046FFF728FCB8B9218D91
:108A30002046FFF7DFFC054668B92046FFF78CFCAF
:108A4000054640B90E49684602F046F909496A46AA
:108A5000022000F0F3F8E06800F0E0F8D2E7E06808
:108A600000F0DCF80125CDE76FF00505CAE700BF8F
:108A70002FD4000063D000007CE2000094E20000EC
:108A80006AD4000070B50446C0B0002800F08C80A5
:108A90004649474E474D684602F01EF946496A4628
:108AA000022000F0CBF82378444A002B0CBF334659
:108AB0002B464FF48071684602F004FB3E496A463B
:108AC000022000F0BBF863783D4A002B0CBF334610
:108AD0002B464FF48071684602F0F4FA36496A4634
:108AE000022000F0ABF86388364A4FF48071684684
:108AF00002F0E8FA30496A46022000F09FF8A388A5
:108B0000314A4FF48071684602F0DCFA2A496A461D
:108B1000022000F093F8A3792C4A002B0CBF3346B7
:108B20002B464FF48071684602F0CCFA22496A461F
:108B3000022000F083F8E379254A002B0CBF33466E
:108B40002B464FF48071684602F0BCFA1A496A4617
:108B5000022000F073F8237A1E4A002B0CBF334624
:108B60002B464FF48071684602F0ACFA12496A460F
:108B7000022000F063F8637A174A002B0CBF3346DB
:108B80002B464FF48071684602F09CFA6A460A4907
:108B9000022000F053F81149684602F09DF806499A
:108BA0006A46022000F04AF840B070BD92D400003E
:108BB0008FD400008BD4000063D00000F9D40000F3
:108BC00013D500002DD500004BD5000065D5000061
:108BD0007FD5000099D50000B3D50000CDD50000A9
:108BE000073007289ABF024B53F82000014870470E
:108BF0005CE2000064D6000000B11030704701F064
:108C00006BBD08B101F02ABE7047012001F0A6B982
:108C100018B14FF0FF3101F051BA704720B1002375
:108C20001A46194601F0EAB8704708B101F04CBB8A
:108C3000704708B100F032BD7047000000B580F306
:108C40000200074BB3B0CDE9001253F82030054ABB
:108C5000C02102A802F036FA33B05DF804FB00BF71
:108C6000ACE20000C0D6000000B5C1B004496846BF
:108C700002F032F803496A460020FFF7DFFFFEE703
:108C8000CED6000063D0000000B5C1B0064A0B4646
:108C900068464FF4807102F015FA04496A460020D4
:108CA000FFF7CCFFFEE700BFF2D6000063D0000064
:108CB00030B5C5B001A800F0CBF8054668B12B4926
:108CC00004A802F009F82A4904AA0020FFF7B6FF19
:108CD000002000F089FA45B030BD01A8FFF72AFC5A
:108CE000044660B9234904A801F0F6FF204904AA0C
:108CF0002046FFF7A3FF01A800F0D0F8E8E72946D7
:108D0000FFF770FC88B1FFF76BFF1B4A03464FF477
:108D1000807104A802F0D6F9154904AA0020FFF7D3
:108D20008DFF2046FFF72CFEE5E72046FFF764FFA6
:108D300008B1FFF7A7FE002211462046FFF726FDE7
:108D400020B1FFF74DFF0D4A0346E0E70C4904A8A8
:108D500001F0C2FF064904AA0220FFF76FFF204678
:108D6000FFF738FE2046FFF7C3FDDAE737D70000EC
:108D700063D0000055D700006AD7000083D70000F9
:108D8000A7D7000010B5C0B01C46429B104603B1E7
:108D900062B91649684601F09FFF002014496A46EF
:108DA000FFF74CFF4FF0FF3040B010BD9A68013222
:108DB0009A601A78012A0FD0032A11D0A2B9012291
:108DC0000C491A70B4F5007F28BF4FF40074224696
:108DD00002F062F82046E7E7022207491A70F1E73D
:108DE000022206491A70EDE70549EBE7E4D70000D7
:108DF00063D00000BCE80000BCE60000BCE200005C
:108E0000BCE4000000B5C1B0429B03B16AB90E4991
:108E1000684601F061FF00200C496A46FFF70EFF2B
:108E20004FF0FF3041B05DF804FB5A68012902F1B0
:108E300001025A6002D100221A7001E01A780AB1C8
:108E40000020EFE70122F7E716D8000063D000000A
:108E500010B5C0B0A8B10C4B0C4A0D490024C3E9B1
:108E600000449C6002600B4AC0E90123684601F09F
:108E700033FF022008496A46FFF7E0FE204640B073
:108E800010BD4FF0FF30FAE78CFE0000058E0000A9
:108E900048D80000858D000063D0000000B5C1B047
:108EA0000549684601F018FF04496A460220FFF7A9
:108EB000C5FE41B05DF804FB79D8000063D0000026
:108EC0002DE9F843224B234C1D68234BD3F8008037
:108ED000224B0646D3F80090206804300F4601F07C
:108EE0005EFA40B922681E49D06A0B6801228240AE
:108EF00023EA02030B60731C14D19FB1194B216844
:108F00005A688A6021689068C860216804314160AD
:108F1000216804319160226853611A6801321A6035
:108F2000BDE8F88323682168AD195D6001F1040193
:108F300004D34846BDE8F84301F01ABA404601F0B0
:108F400017FA094B1A68AA4288BF1D60E8E700BFFC
:108F5000BCFE0000C0FF000008FF000004FF00008E
:108F6000B8FE0000C4FE0000A0FE0000064A136820
:108F70001968064B19B94FF0FF321A607047126832
:108F8000D2681268F9E700BF08FF0000A0FE0000E9
:108F9000F8B50E4C0E4F0F4E236803B9F8BD01F023
:108FA00073FDFB68DD68281D01F0F9F93368013BAA
:108FB00033602368013B236001F08CFD286B01F0D6
:108FC0004DFC284601F04AFCE6E700BFD8FE000051
:108FD000DCFE0000C0FE000008B5084E4FF0E024A3
:108FE0004FF08055FFF7D4FF3368012BFAD9C4F84E
:108FF000045DBFF34F8FBFF36F8FF3E734FF0000C3
:109000002DE9F84F9500814628460A9F0E46904666
:109010009A4601F061FB834618B94FF0FF30BDE876
:10902000F88F502001F058FB0446002800F0A08083
:109030005022002101F0DEFE2A46C4F830B0A521FE
:10904000584601F0D7FE236B043D1D4425F007056B
:109050006EB1731E04F133020B3613F8011F02F8D0
:10906000011F09B1B342F8D1002384F83F30062F25
:1090700006D94C4B4C4A40F27B714C4801F006FE3D
:10908000261DE7622764304601F064F9C7F107073F
:1090900004F1180001F05EF928462461A7616462BA
:1090A0005246494601F0DAFC2D1AB8EBA50F2060B4
:1090B00004D83F4B3C4A40F2DE71DEE70B9B03B124
:1090C0001C6001F0E1FC3B4B3B4F1A68DFF810815C
:1090D00001321A603D68002D4ED13C601B68012BA7
:1090E0001FD1C1464846013501F029F9072D09F184
:1090F0001409F7D1DFF8EC90304D484601F01FF924
:10910000284601F01CF92E4801F019F92D4801F00C
:1091100016F92D4801F013F92C4BC3F800902C4B95
:109120001D602C4A2C491368086801331360E36AF8
:1091300001229A4002430A601422534308EB0301C0
:109140004A68A2609068E0604660966058F8032024
:109150006161013248F8032001F0BCFC1F4B1B6821
:1091600023B13B68DA6AE36A9A4210D3012056E7DA
:10917000584601F073FB50E7184B1A68E36A002A5F
:10918000CFD13A68D26A9A4298BF3C60C9E74FF0A3
:10919000E0234FF08052C3F8042DBFF34F8FBFF38D
:1091A0006F8FE3E7BAD80000BCEB00009FD8000047
:1091B000CDD80000C0FE0000C0FF00000CFF000082
:1091C000F0FE0000DCFE0000C4FE000008FF00000E
:1091D00004FF0000A4FE0000B8FE0000B4FE000082
:1091E00034FF000020FF0000F8B504462F4D01F0C9
:1091F0004BFC44B92C6834B92D4B2E4A40F6BD01C6
:109200002D4801F043FD261D304601F0C8F860B935
:10921000E06A2A4A14234343D35833B92849012228
:109220000B68824023EA02030B60A36A1BB104F1BE
:10923000180001F0B4F8234A234F13680133136078
:109240002B683A68C2B1A34216D12048314601F0DA
:1092500084F81F4A13680133136001F03BFC3B683C
:109260001BB32B68A34220D11A4B1B689BB11A4B2E
:10927000104A40F63611C3E7184A1368013B1360E1
:10928000FFF774FE01F026FC206B01F0E7FA2046A0
:1092900001F0E4FAE3E74FF0E0234FF08052C3F827
:1092A000042DBFF34F8FBFF36F8FF8BDC0FF0000D9
:1092B00028D90000B0EB00009FD8000034FF000068
:1092C000B8FE0000A4FE0000B4FE0000DCFE0000BA
:1092D000D8FE000098FE00003DD90000C0FE00004E
:1092E00010B586B000231C4A0593CDE9033303ABC8
:1092F00012F8014B03F8014B002CF9D1174B184819
:10930000CDE900438022234603A9FFF779FE012817
:1093100019D101F0B5F9012815D14FF0500383F3AD
:109320001188BFF36F8FBFF34F8F0E4B4FF0FF329B
:109330001A600D4B18600D4B1C6001F0F1FB0C4BDB
:109340001B6806B010BD0130F9D10A4B0A4A0B4820
:1093500040F6CE6101F09AFC57D900009CFE000057
:10936000D98F0000A0FE0000B4FE0000BCFE00008B
:10937000D4EB00005CD9000091EB00009FD8000006
:10938000024A136801331360704700BF98FE000063
:10939000014B1868704700BFBCFE00002DE9F84F74
:1093A000564B1B68002B40F0A380554B1C680134C2
:1093B0001C60ACB9534B1A68126832B1524B534A15
:1093C000534841F29D2101F061FC524A196810682E
:1093D00018601160504A136801331360FFF7C6FD2F
:1093E0004E4D4F4A2B68DFF848C19C424FF00000B9
:1093F0000FD2DCF80030DB6A14214B43D358022B28
:10940000484B1B6828BF0120002B18BF0120BDE876
:10941000F88F3C4F444E3B681B681BB94FF0FF333D
:109420002B60E6E73B68DB68DB6859688C4201D259
:109430002960DEE7D3E90219D3F81480C1F8089057
:10944000C9F80410D8F8041003F1040E71454FF068
:10945000000108BFC8F804905961D8F8001001391C
:10946000C8F80010D3F82880B8F1000F15D0D3E960
:109470000719C1F80890C9F80410D8F8041003F1CE
:10948000180A51454FF0000108BFC8F804909962CE
:10949000D8F800100139C8F80010D96AD6F8009041
:1094A0004FF0010808FA01F848EA0908C6F80080F8
:1094B0004FF0140808FB01F802EB080ADAF80490F0
:1094C000C3F80890D9F808B0C3F80CB0CBF804E0A2
:1094D000C9F808E0C3F814A052F80830013342F884
:1094E0000830DCF80030DB6A994288BF012092E73F
:1094F0000E4A136801331360002088E798FE0000CD
:10950000BCFE000008FF00006ED900006FEB0000F9
:109510009FD8000004FF0000A8FE0000A0FE00008D
:1095200034FF0000ACFE0000B8FE0000B0FE0000FA
:10953000C0FF00002DE9F84F01F0A6FA4C4B1A6865
:1095400032B94C4B4C4A4D4840F6CC7101F09EFB71
:109550001A68013A1A601B682BB1002401F0BAFAAC
:109560002046BDE8F88F464A1268002AF5D04548E3
:10957000454C464A464FDFF820C10125142653E0EA
:10958000C368DB68D3E90718D3F828E0C1F808807E
:10959000C8F80410DEF8041003F1180949454FF02B
:1095A000000108BFCEF804809962DEF8001001398E
:1095B000CEF80010D3E90218D3F814E0C1F80880FF
:1095C000C8F80410DEF8041003F104094945DEF878
:1095D000001008BFCEF804800139CEF80010D3F88F
:1095E0002CE0D4F8008005FA0EF141EA080106FBF0
:1095F0000EF802EB080A2160DAF804109960D1F83D
:1096000008B0C3F80CB0CBF80490C1F8089052F839
:109610000810C3F814A0013142F808103968C96A6B
:109620008E4501D9CCF8005001680029A8D10BB1B2
:10963000FFF79CFC174D2C6844B1174E0127FFF72C
:10964000ADFE00B13760013CF9D12C60124B1B68B4
:10965000002B82D00E4B1B684FF0E0234FF080525E
:10966000C3F8042DBFF34F8FBFF36F8F012475E74D
:1096700098FE0000E4D9000082EB00009FD80000B3
:10968000C0FE0000F0FE0000B8FE000034FF000045
:10969000C0FF0000B0FE0000ACFE000008B550B9ED
:1096A0004FF0E0234FF08052C3F8042DBFF34F8FEB
:1096B000BFF36F8F08BDFFF763FE094B1B68012BDB
:1096C00006D0084B084A09484FF41B6101F0DEFA46
:1096D0000021FFF7F5FBFFF72DFF0028E0D0E9E7B9
:1096E00098FE00002ADA0000A5EB00009FD80000D9
:1096F00038B5254B1A68254B12B101221A6038BDC6
:10970000234C1A602368216822680968126B1B6B5E
:1097100091420FD91A68B2F1A53F0BD15A68B2F144
:10972000A53F07D19A68B2F1A53F03D1DB68B3F139
:10973000A53F04D0216820683431FFF7A5FA154B06
:109740001A68B2FA82F2D2B2C2F11F02142312498D
:109750005343C818CD5835B9104B114A114841F23E
:109760003A4101F093FA456808336D6845600B444F
:109770009D4204BFC3684360142303FB02114B687E
:10978000DB6823602368BAE798FE0000ACFE0000A7
:10979000C0FF0000B8FE000034FF000045DA000002
:1097A0005CEB00009FD8000010B50C4630B9094BA7
:1097B000094A0A484FF4A65101F068FA084B1968A3
:1097C000183100F0D5FD20460121BDE81040FFF71B
:1097D00077BB00BF8ADA000046EB00009FD800008C
:1097E000C0FF000070B50C46114630B9114B124A4B
:1097F000124841F2FE4101F049FA114B42681D68DE
:109800009668EA611D682E621D68183575601D68CE
:109810001B681835956098620368002903F10103FD
:1098200003600CBF20464FF0FF30BDE87040FFF7EB
:1098300047BB00BF8ADA000026EB00009FD800007B
:10984000C0FF0000F8B5C368DB6833B9294B2A4A6A
:109850002A4841F2355101F019FAD3E907019A6A11
:1098600081604860506803F11804A04208BF51604D
:1098700000219962116801391160214AD96A126880
:10988000002A2AD1D3E902405A69A0604460546892
:109890001D1DAC4208BF50601068013810601948A7
:1098A000012204688A4022430260174814224A4376
:1098B000861874689C60A768DF607D60A5605E6143
:1098C000835801338350114B1B68DB6A994283BF75
:1098D0000F4B012018600020F8BD0E4A5068D86177
:1098E00085681D626C6084609A621368013313603E
:1098F000E9E700BF96DA00000DEB00009FD80000FA
:1099000098FE0000B8FE000034FF0000C0FF000019
:10991000ACFE0000F0FE0000034B1B680360034B2D
:109920001B684360704700BFA8FE0000BCFE00003B
:1099300070B50D46044630B9164B174A41F2E55151
:10994000164801F0A3F921B9154B134A41F2E6512B
:10995000F6E701F099F8134B19682B685A1C17D0D9
:109960001148266800686268864208D08A4206D894
:1099700000232B60012401F0ADF8204670BD881A49
:109980008342F5D95B1A13442B602046FFF7C4FFCE
:109990000024F0E7A5DA0000F8EA00009FD80000F4
:1099A000AFDA0000BCFE0000A8FE0000014B01225F
:1099B0001A607047ACFE0000054B1B6833B1054BC5
:1099C0001868B0FA80F040094000704701207047E5
:1099D000B4FE000098FE0000F8B50446002837D019
:1099E000224DC36A2A68D26A934236D28269204ED7
:1099F000002AA1BF2A68D26AC2F10702826114223A
:109A000002FB036342699A4223D1071D384600F0E6
:109A1000C6FC184930B9E06A0B680122824023EA8B
:109A200002030B602B680868DB6AE36201229A403C
:109A300002430A6014225343F1184A68A2609068F6
:109A4000E06047609760F25861610132F250012096
:109A5000F8BD2B68DB6AC362F9E72B68006CDB6A30
:109A600098422CBF00200120F2E700BFC0FF000099
:109A700034FF0000B8FE0000F8B5044608B9002025
:109A8000F8BD204B1B68834206D01F4B1F4A41F68E
:109A90006E211F4801F0FAF85B6C23B91D4B1B4A7D
:109AA00041F66F21F5E7C16A026C013B91424364C4
:109AB000E5D0002BE3D1051D284600F070FC164AC6
:109AC00030B9E06A13680121814023EA0103136081
:109AD000236C1668E362C3F107010120A16100FA5B
:109AE00003F1314311600D4A14214B43D6187168BC
:109AF000A1608F68E7607D608D60D1586661014428
:109B0000D150BDE7C0FF0000BDDA0000E0EA000070
:109B10009FD80000D3DA0000B8FE000034FF000038
:109B2000F8B50446002849D0436C33B9244B254A84
:109B300041F6CC21244801F0A9F8026CC76A914291
:109B400038BF11468F4239D0012B37D11F4B1B68CC
:109B5000834204D11E4B1B4A41F6E721EAE78369A1
:109B60001C4D4269C162002B4FF01403A8BFC1F124
:109B7000070103FB0753A8BF81619A421ED1061D4E
:109B8000304600F00CFC144928B90B680122BA4099
:109B900023EA02030B60E36A086801229A40024349
:109BA0000A6014225343E9184A68A2609068E06092
:109BB00046609660EA5861610132EA50F8BD00BF24
:109BC000D3DA0000BCEA00009FD80000C0FF00000C
:109BD000E8DA000034FF0000B8FE0000034B18680C
:109BE00010B1436C01334364704700BFC0FF0000F5
:109BF00010B5044600F048FFA46B00F06BFFB4FA08
:109C000084F0400910BD70B51646026C856B0446A1
:109C100042B906689EB98068FFF72EFFA66001353D
:109C2000A56370BD6EB9406801F036F96368226CB7
:109C30001344A2686360934224BF236863600020DA
:109C4000EDE7C06801F028F9226CE36851429B1AE5
:109C50002268E36093423EBFA3685B18E360022E74
:109C6000EDD10DB1013DEAE72846D8E7034610B42F
:109C70001A6C08466AB1DC68996814448C4228BFA3
:109C80001968DC6028BFD960D9685DF8044B01F021
:109C900003B95DF8044B704770B5044600F0F4FE5C
:109CA00094F8455004F124066DB2002D01DD636A7D
:109CB000B3B9FF2384F8453000F00CFF00F0E4FE58
:109CC00094F8445004F110066DB2002D01DD2369B3
:109CD0007BB9FF2384F84430BDE8704000F0FABE41
:109CE0003046FFF7AFFD08B1FFF760FE013D6DB2F2
:109CF000DBE73046FFF7A6FD08B1FFF757FE013D51
:109D00006DB2E2E770B50E46044630B9214B224AE7
:109D100040F23711214800F0B9FFC56BA5B3036CC1
:109D2000A3FB053585BB00F0AFFED4E90F312268F7
:109D300062604B43D0185B1A1A44FF23A563A060EE
:109D400084F84430E26084F84530A6B9236973B1E1
:109D500004F11000FFF776FD48B14FF0E0234FF01B
:109D60008052C3F8042DBFF34F8FBFF36F8F00F005
:109D7000B1FE012070BD04F1100000F0E0FA04F122
:109D8000240000F0DCFAF2E7054B034A4FF4B67109
:109D9000C0E700BFFEDA000057EC000006DB000061
:109DA00021DB000070B50D460646C8B1A1FB0023BB
:109DB000B3B9484310F1490F12D8483000F08CFC79
:109DC000044648B155B100F14803C4E90F6523606A
:109DD00001212046FFF796FF204670BD0346F4E7B9
:109DE000034B044A044840F22D2100F04FFF00BF0E
:109DF00045DB000043EC000006DB00002DE9FF41DD
:109E00000F4601921E46044630B94E4B4E4A4FF45F
:109E100070714E4800F03AFF31B9036C23B14C4BDE
:109E2000494A40F2C131F4E7022E07D1E36B012B1E
:109E300004D0484B444A40F2C231EAE7FFF7BCFD88
:109E4000054620B300254FF0000800F01DFEA26B70
:109E5000E36B9A4223D2324639462046FFF7D3FEBF
:109E6000636A1BB104F12400FFF7ECFC48B14FF02A
:109E7000E0234FF08052C3F8042DBFF34F8FBFF3A0
:109E80006F8F00F027FE012004B0BDE8F081019B38
:109E9000002BD8D0304B2C4A40F2C531B9E7022E06
:109EA000D9D0019B1BB900F015FE0020ECE715B9D5
:109EB00002A8FFF731FD00F00DFEFFF761FA00F098
:109EC000E3FD94F84430FF2B08BF84F8448094F8F5
:109ED0004530FF2B08BF84F8458000F0FBFD01A949
:109EE00002A8FFF725FD38BB00F0CEFDA26BE36BA7
:109EF0009A420ED100F0EEFD019904F11000FFF737
:109F000053FC2046FFF7C8FEFFF714FB48B10125BC
:109F10009BE700F0DFFD2046FFF7BEFEFFF70AFBE0
:109F2000F5E74FF0E0234FF08052C3F8042DBFF364
:109F30004F8FBFF36F8FEAE72046FFF7ADFEFFF7C5
:109F4000F9FAB2E7FEDA000031EC000006DB0000AF
:109F500050DB0000A7DB0000F4DB000010B5024678
:109F600000210120FFF71EFF044638B10023836063
:109F70000360C3601A461946FFF740FF204610BD34
:109F80002DE9FF410E460192044630B9464B474A3F
:109F90004FF4BE61464800F079FE31B9036C23B13D
:109FA000444B424A40F2F451F4E7FFF705FD054601
:109FB00018B300254FF0000800F066FDA76B27B32B
:109FC00031462046FFF752FE2369013FA76373B174
:109FD00004F11000FFF736FC48B14FF0E0234FF0DA
:109FE0008052C3F8042DBFF34F8FBFF36F8F00F083
:109FF00071FD012004B0BDE8F081019B002BD9D098
:10A000002D4B2A4A40F2F951C4E7019B1BB900F0DD
:10A0100061FD0020EEE715B902A8FFF77DFC00F016
:10A0200059FDFFF7ADF900F02FFD94F84430FF2BF8
:10A0300008BF84F8448094F84530FF2B08BF84F8AB
:10A04000458000F047FD01A902A8FFF771FC00BBA5
:10A050002046FFF7CDFDB0B1019904F12400FFF7D0
:10A06000A3FB2046FFF718FEFFF764FA48B94FF04C
:10A07000E0234FF08052C3F8042DBFF34F8FBFF39E
:10A080006F8F012598E72046FFF706FEFFF752FA8B
:10A09000F7E72046FFF700FEFFF74CFA2046FFF7F0
:10A0A000A7FD0028EDD0B4E747DC000023EC00005A
:10A0B00006DB000053DC0000F4DB0000F0B585B0E7
:10A0C0000446019130B9524B524A40F289615248DC
:10A0D00000F0DCFD056C25B1504B4E4A40F28D611D
:10A0E000F5E7FFF769FC064620B32E46002700F08F
:10A0F000CBFCA36B33B3013BA363236813B9FFF716
:10A100006DFDA060236973B104F11000FFF79AFBA5
:10A1100048B14FF0E0234FF08052C3F8042DBFF355
:10A120004F8FBFF36F8F00F0D5FC012005B0F0BD5D
:10A130003546DBE7019B002BFAD0394B354A40F21C
:10A140009261C4E7019B1BB900F0C4FC0020EDE75D
:10A1500016B902A8FFF7E0FB00F0BCFCFFF710F90E
:10A1600000F092FC94F84430FF2B08BF84F8447050
:10A1700094F84530FF2B08BF84F8457000F0AAFC26
:10A1800001A902A8FFF7D4FB50BB2046FFF730FD22
:10A1900000B323683BB900F077FCA068FFF71CFC14
:10A1A000054600F097FC019904F12400FFF7FCFA42
:10A1B0002046FFF771FDFFF7BDF948B94FF0E023E6
:10A1C0004FF08052C3F8042DBFF34F8FBFF36F8F52
:10A1D00001268CE72046FFF75FFDFFF7ABF9F7E7B5
:10A1E0002046FFF759FDFFF7A5F92046FFF700FDD0
:10A1F0000028EDD0002DA9D000F046FC616A19B10D
:10A20000236B1968C1F10701A068FFF789FC9BE780
:10A2100047DC00000FEC000006DB0000ADDC0000B6
:10A22000F4DB000070B530B9104B114A114840F60C
:10A23000CC3100F02BFDB9B10F4A00231C46154666
:10A240005668864204D105EBC403C3E900100BE055
:10A250001BB91668002E08BF13460134082C02F102
:10A260000802EDD1002BF0D170BD00BFFFDA000075
:10A27000EEEB000006DB0000C4FF000010B530B9B3
:10A280000C4B0D4A0D484FF4426100F0FFFC0C4AA4
:10A29000002352F8331081424FEAC30406D1094A21
:10A2A000002142F833102244516010BD0133082BC5
:10A2B000EFD1FAE7FFDA0000D8EB000006DB000080
:10A2C000C8FF0000C4FF000010B5044630B9074BBA
:10A2D000074A084840F6D70100F0D8FCFFF7CEFF48
:10A2E0002046BDE8104000F0B9BA00BFFEDA000019
:10A2F00002EC000006DB000070B504460D46164671
:10A3000000F0C2FB94F84430FF2B04BF002384F814
:10A31000443094F84530FF2B04BF002384F84530C7
:10A3200000F0D8FBA36B2BB93246294604F1240078
:10A33000FFF758FA2046BDE87040FFF7ADBC00F1CA
:10A3400008034FF0FF32C0E902234360036100239A
:10A350000360704700230361704743684B609A684D
:10A360008A60516099600368086101330360704737
:10A3700030B50C68631C0AD103695A684A60916061
:10A380008B605960036808610133036030BD00F1E0
:10A390000802134652681568A542FAD9EDE7D0E9DC
:10A3A000011203698A6051605968814208BF5A608E
:10A3B000002202611868013818607047914208B5A0
:10A3C000416000610AD8D21A83699A420DD2084BC3
:10A3D000011D1868FFF7CCFF002008BD9A4201D28A
:10A3E000994202D2034B011DF3E70120F5E700BFBC
:10A3F000100001001400010070B504460D46164619
:10A40000A1692B46324629442046FFF7D7FF00B901
:10A4100070BDA36920461D44236A9847F0E70000F9
:10A420000E4B1B68DB6870B5DC680546201D0E46C8
:10A43000FFF7B5FF94F824305A0709D5324629466C
:10A440002046FFF7D9FF236A2046BDE87040184731
:10A4500023F0010384F82430F5E700BF1400010065
:10A46000F8B50F4E0546FEF793FF33688342044666
:10A4700009D90C4F3B681A6852B90B4A1168396008
:10A480001360012300E000232B6034602046F8BDF8
:10A49000DB684FF0FF311868FFF7C2FFEAE700BF43
:10A4A0000400010014000100100001002DE9F04338
:10A4B000DFF87081564F85B00026D8F80030D3F809
:10A4C0000090B9F1000F39D0DB68D3F80090002478
:10A4D000FEF756FF01A8FFF7C3FF019B0546002BBF
:10A4E00049D16CBB484531D3FFF724F8294648468B
:10A4F000FFF796FFCDE9016603963868002201A9AF
:10A50000FFF73EFD0028D8D0019B002BF5DB039C14
:10A51000002CF2D0636913B1201DFFF740FF68469D
:10A52000FFF79EFF019B013B0546082BE5D8DFE8BE
:10A5300003F02525484F662525484F000124C7E72D
:10A54000344B1B681C68B4FA84F4640938682246EA
:10A55000A9EB0501FFF7D0FEFEF7ECFF0028C9D1FB
:10A560004FF0E0234FF08052C3F8042DBFF34F8F1C
:10A57000BFF36F8FBEE7FEF7DDFFBBE794F8243033
:10A58000A16943F0010384F82430029B0246194478
:10A590002046FFF713FF0028AFD094F82430590766
:10A5A0000AD5A36902992A4619442046FFF724FFD9
:10A5B000236A20469847A0E723F0010384F824305B
:10A5C000F6E794F8243023F0010384F8243094E76C
:10A5D00094F8243043F0010384F824300299A161F7
:10A5E00031B90D4B0D4A0E4840F20E4100F04EFBC2
:10A5F0000346024601442046FFF7E0FE7DE794F85B
:10A6000024309A07DFD4204600F028F975E700BF10
:10A610000C00010010000100C6DC00006AEC000024
:10A62000EBDC000014000100F8B50F4C00F02CFA30
:10A630002568ADB90D4F0E4E3846FFF780FE304607
:10A64000FFF77DFE0B4B1F600B4B2A460C210A20A7
:10A650001E60FFF7A7FB206010B10849FFF7E2FD7D
:10A66000BDE8F84000F036BA0C0001002C000100F3
:10A6700018000100140001001000010007DD0000B7
:10A6800007B5FFF7D1FF0D4B1B6833B90C4B0D4AD3
:10A690000D484FF4A37100F0F9FA0C4B019302231B
:10A6A00000930B490B4800234FF48072FEF7A8FC7F
:10A6B0000028EBD003B05DF804FB00BF0C000100E4
:10A6C0000CDD000085EC0000EBDC00000800010060
:10A6D00014DD0000ADA40000F8B5431E0A3337D8DE
:10A6E00010F0070300F1080405D0A3F10902A2420B
:10A6F0002ED31030C41A4B4EFEF742FE3368F3B926
:10A70000494A4A4853071FBFD11D21F0070102F5EE
:10A710008042531A0CBF4FF480430A461344083B4F
:10A7200023F00703002141600260C3E90011991A78
:10A73000C2E9003133603E4B19603E4B1960002C7A
:10A7400008DCFEF7F7FEFEF78FFA00252846F8BD75
:10A750000024D0E7DFF8DCC0DCF80010A142F0D321
:10A76000324ADFF8C4E01368734502D3324FBB426C
:10A770000FD9324B324AF621324800F087FA75453C
:10A7800002D3BD421A4603D92C4B2D4AFC21F3E7D4
:10A790002B465868A04202D21D68002DEFD13568C3
:10A7A0009D42CED015680835754501D3BD4204D908
:10A7B000254B234A4FF48371DEE71F681760A042E0
:10A7C00004D2224B1E4A4FF48771D5E7001B102894
:10A7D0000CD91E1916F0070F04D01D4B184A40F271
:10A7E0001711C9E770605C601F51166058680A1A3B
:10A7F0000F49CCF800200C68A24238BF0A60002242
:10A800001A60144A40F00040586013680133136026
:10A81000FEF790FE6B0799D00F4B094A40F25D118D
:10A82000AAE700BF500001005C00010054000100D5
:10A83000480001004C0001005B4001001CDD0000ED
:10A84000C0EC0000A1DD0000CEDD000055DE000000
:10A8500088DE000044000100BCDE0000F8B50546BB
:10A8600000285DD02F4FA0F10804BC4202D32E4E29
:10A87000B44206D92D4B2E4A4FF4B8712D4800F042
:10A8800005FA50F8043C002B04DB2B4B284A40F21D
:10A890007111F3E750F8082C22B1284B244A4FF4E9
:10A8A000B971EBE723F0004340F8043CFEF768FD84
:10A8B000234A55F8041C13680B441360214B1846B7
:10A8C0001A461B689C42FBD8824208D0BA4201D388
:10A8D000B24204D91C4B1D4A40F20621CEE7506813
:10A8E0001518AC4202BF091814465160606821185F
:10A8F0008B4213D1164909688B4203D05968014431
:10A90000616019682160A24218BF1460114A13687F
:10A9100001331360BDE8F840FEF70CBE1946F1E7BD
:10A92000F8BD00BF5C0001005B400100F5DE0000E7
:10A93000B6EC0000A1DD000078DF0000EBDF0000D6
:10A940004C0001005400010016E000009BEC0000E8
:10A950005000010040000100064B19680868B0E88B
:10A96000F04F80F30988BFF36F8F4FF0000080F342
:10A9700011887047C0FF000008480068006880F335
:10A9800008884FF0000080F3148862B661B6BFF308
:10A990004F8FBFF36F8F00DF00BF000008ED00E0B6
:10A9A000EFF30980BFF36F8F144B1A681EF0100F7E
:10A9B00008BF20ED108A20E9F04F10602DE9090052
:10A9C0004FF0500080F31188BFF34F8FBFF36F8FAC
:10A9D000FEF78EFE4FF0000080F3118809BC196865
:10A9E0000868B0E8F04F1EF0100F08BFB0EC108AF6
:10A9F00080F30988BFF36F8F70470000C0FF00002D
:10AA0000DFF80C00016841F470010160704700003C
:10AA100088ED00E007B5002301930C4B1B68013360
:10AA200005D00B4B0B4A0C48F42100F02FF94FF0E6
:10AA3000500383F31188BFF36F8FBFF34F8F019BD8
:10AA4000002BFCD003B05DF804FB00BF10FE00003B
:10AA5000A1E0000006ED0000BBE000004FF08073B5
:10AA600040F8043C074B40F80C3C21F001016FF02A
:10AA7000020340F8081C40F8202C40F8243C4438DD
:10AA8000704700BF15AA000008B54FF0500383F3CC
:10AA90001188BFF36F8FBFF34F8F0A4A13680133DA
:10AAA000012B13600CD14FF0E023D3F8043DDBB24F
:10AAB00033B1054B054A064840F2E71100F0E6F8CD
:10AAC00008BD00BF10FE0000EBE00000DFEC00005E
:10AAD000BBE00000084A08B5136833B9074B084AC1
:10AAE00008484FF4F77100F0D1F8013B13600BB93F
:10AAF00083F3118808BD00BF10FE00002DE10000A7
:10AB0000CDEC0000BBE000004FF0E02300221A6112
:10AB10009A61024A5A6103221A6170473F9002000B
:10AB20004FF0E02337B5D3F8001D484A914206D1D3
:10AB3000474B484A4FF49B71474800F0A7F8D3F8B9
:10AB4000001D464A914204D1454B424A40F237111A
:10AB5000F2E7D3F8083D434AD96A914204D0424B08
:10AB60003C4A4FF4AB71E7E79A6B404B9A4204D0F2
:10AB70003F4B384A40F25711DEE7002301933D4B2B
:10AB80001A78D2B28DF80220FF221A701B783A4A46
:10AB9000DBB28DF803309DF8033003F050031370DF
:10ABA00023B9364B2B4A4FF4BD71C5E79DF80330EE
:10ABB000DB4313F0500F0CD0314B264A4FF4BF71DA
:10ABC000BAE7013301939DF803305B00DBB28DF8E7
:10ABD00003309DF8033013F0800F019BF1D1082B57
:10ABE00018BF019B274A14BFC3F1070300231B02B0
:10ABF00003F4E06313609DF802301E4A4FF0E02436
:10AC0000DBB21370D4F8203D43F47F03C4F8203D39
:10AC1000D4F8203D002543F07F43C4F8203DC4F81C
:10AC20001C5DFFF771FF184B1D60FFF7E9FED4F8BC
:10AC3000343F43F04043C4F8343FFFF79DFEFEF736
:10AC400057FDFFF7E7FE284603B030BD71C20F4144
:10AC50003FE10000F2EC0000BBE0000070C20F41D9
:10AC60007FE1000059A90000BFE10000A1A9000098
:10AC7000E6E1000000E400E06040010010E20000B6
:10AC800025E200005C40010010FE000000B50B4C06
:10AC900025681446EE681A4685B003460D464CB149
:10ACA00007490095CDE901143046064900F09CF9AA
:10ACB00000F098F804490C46F3E700BF14FE0000CA
:10ACC00018ED000028ED000024ED000008B5134643
:10ACD0000022FFF7DBFF00BF80EA0102844612F08A
:10ACE000030F4FD111F0030F32D14DF8044D11F085
:10ACF000040F51F8043B0BD0A3F101329A4312F038
:10AD0000803F04BF4CF8043B51F8043B16D100BF10
:10AD100051F8044BA3F101329A4312F0803FA4F1A1
:10AD200001320BD14CF8043BA24312F0803F04BF28
:10AD300051F8043B4CF8044BEAD023460CF8013B95
:10AD400013F0FF0F4FEA3323F8D15DF8044B70473F
:10AD500011F0010F06D011F8012B0CF8012B002A7D
:10AD600008BF704711F0020FBFD031F8022B12F06C
:10AD7000FF0F16BF2CF8022B8CF8002012F47F4F27
:10AD8000B3D1704711F8012B0CF8012B002AF9D12F
:10AD9000704700BF70B50F4B0F4DAB42A3EB0506DC
:10ADA00007D0B610002455F8043B01349847A6425A
:10ADB000F9D8FDF725F9094D094B5E1BAB424FEA67
:10ADC000A60606D0002455F8043B01349847A64255
:10ADD000F9D870BD08FE000008FE000008FE000063
:10ADE0000CFE000008B5062000F0B6FF012002F0BE
:10ADF00023F900BF830730B547D0541E002A3ED048
:10AE0000CAB2034601E0013C39D303F8012B9D0788
:10AE1000F9D1032C2CD9CDB205EB05250F2C05EB70
:10AE2000054535D9A4F1100222F00F0C03F1100EE4
:10AE3000E6444FEA121C1A46C2E90055C2E902551F
:10AE400010327245F8D10CF1010214F00C0F03EB33
:10AE5000021204F00F0C13D0ACF1040323F003032F
:10AE60000433134442F8045B9342FBD10CF0030417
:10AE70002CB1C9B21C4403F8011BA342FBD130BD65
:10AE800064461346002CF4D1F9E703461446C0E7A4
:10AE90001A46A446E0E700BF844641EA000313F0E7
:10AEA00003036DD1403A41D351F8043B40F8043BD1
:10AEB00051F8043B40F8043B51F8043B40F8043B94
:10AEC00051F8043B40F8043B51F8043B40F8043B84
:10AED00051F8043B40F8043B51F8043B40F8043B74
:10AEE00051F8043B40F8043B51F8043B40F8043B64
:10AEF00051F8043B40F8043B51F8043B40F8043B54
:10AF000051F8043B40F8043B51F8043B40F8043B43
:10AF100051F8043B40F8043B51F8043B40F8043B33
:10AF200051F8043B40F8043B403ABDD2303211D3D3
:10AF300051F8043B40F8043B51F8043B40F8043B13
:10AF400051F8043B40F8043B51F8043B40F8043B03
:10AF5000103AEDD20C3205D351F8043B40F8043BD3
:10AF6000043AF9D2043208D0D2071CBF11F8013BD1
:10AF700000F8013B01D30B8803806046704700BF97
:10AF8000082A13D38B078DD010F003038AD0C3F1A6
:10AF90000403D21ADB071CBF11F8013B00F8013B88
:10AFA00080D331F8023B20F8023B7BE7043AD9D347
:10AFB000013A11F8013B00F8013BF9D20B7803701C
:10AFC0004B7843708B788370604670470CB400B543
:10AFD00083B004AB53F8042B019300F001F903B0E4
:10AFE0005DF804EB02B070470EB410B583B005AB4A
:10AFF000064C53F8042B01930146206800F0F0F84A
:10B0000003B0BDE8104003B0704700BF14FE00005D
:10B0100008B5064B044613B1002101F005FF044BAF
:10B020001B6803B19847204602F006F829CE0000BD
:10B030009C410100002301461A46184601F06ABBF4
:10B0400008B410B5002A9DB0044636DB4FF40273F5
:10B05000ADF814304FF000031B930291069120AB22
:10B0600017D0013A4FF6FF7104920792ADF816100F
:10B070001F9A019302A900F03FFB421C01DA8B23C7
:10B080002360029B00221A701DB0BDE8104001B081
:10B0900070474FF6FF7104920792ADF816101F9A91
:10B0A000019302A900F028FB431C01DA8B232360E3
:10B0B0001DB0BDE8104001B070478B2303604FF016
:10B0C000FF30F5E70CB410B5214B00291C689CB08B
:10B0D00038DB4FF000034FF402721B93ADF81420DD
:10B0E000029006901FAB18D001394FF6FF72049101
:10B0F0000791ADF8162002A91E9A0193204600F090
:10B10000FBFA421C01DA8B232360029B00221A7097
:10B110001CB0BDE8104002B070474FF6FF720491BA
:10B120000791ADF8162002A91E9A0193204600F05F
:10B13000E3FA431C01DA8B2323601CB0BDE8104006
:10B1400002B070478B2323604FF0FF30F5E700BF5C
:10B1500014FE00009368013B002B936011DA10B4D9
:10B160009469A34209DB0A2907D01368581C1060B0
:10B17000197008465DF8044B70475DF8044B00F009
:10B1800087B91368581C106019700846704700BFD3
:10B190009BB1F8B5134406460F46541E5D1E01E0F0
:10B1A000AC4208D014F8011F3A463046FFF7D2FFF0
:10B1B000431CF5D1F8BD0020F8BD0020704700BF4A
:10B1C000936810B514461BB918460023636010BD80
:10B1D00000F0AEFB0023A3600023636010BD00BF3E
:10B1E0002DE9F04FA1B08B4691461C46049018B152
:10B1F000036A002B00F01C81BBF80C30180740F1EB
:10B200009580DBF81030002B00F090800023CA46B8
:10B210000D9343F22003ADF839309AF80030864E92
:10B2200007940127002B79D0D14604E019F8013F9B
:10B23000002B00F08580252BF8D1B9EB0A0840F0EF
:10B24000828099F80030002B68D000234FF0FF3245
:10B25000CDE9092309F1010908930B938DF86330B7
:10B260001E9305E0089A07FA03F31A430892A146D1
:10B270004C46052214F8011B304601F099F9A2460C
:10B28000831B0028EED1089BD90644BF20228DF8ED
:10B29000632099F800101A0744BF2B228DF8632011
:10B2A0002A2966D1079A1168043200290792C0F250
:10B2B0009A800B9199F801102E2970D05F4C0322CF
:10B2C000204601F075F938B1089B001B40228240EE
:10B2D00013430AF1010A08931AF8011B58488DF824
:10B2E0003810062201F064F9002800F08280554BE6
:10B2F000002B69D007AA0092534B04985A4608A91C
:10B30000AFF300800390039B013307D00D9B039A9A
:10B3100013440D939AF80030002B85D1BBF80C3004
:10B320005B060AD40D9821B0BDE8F08F0498594609
:10B3300001F08EF900283FF469AF4FF0FF30F2E7DB
:10B34000B9EB0A08EAD00AF1FF35CDF81490A94606
:10B35000049D01E0A0453ED94C465A4619F8011F0C
:10B360002846FFF7F7FE02340130A4EB0A04F1D1BE
:10B37000D4E7A1F13002092A88BFCA469CD80B9BAA
:10B3800000E00134217803EB830302EB4303A1F1D6
:10B390003002092AF5D92E290B93A2468ED19AF8AC
:10B3A00001102A292FD1079B9AF802101A680992D6
:10B3B0000433002A0AF102000793B8BF4FF0FF33AD
:10B3C0008246B8BF099379E7079B073323F0070349
:10B3D000083307939AE70D99DDF81490414499F8E2
:10B3E00000300D912FE7494243F002030B9108937F
:10B3F00060E707AA0092144B04985A4608A901F086
:10B40000A3FA03907FE7A1F130020023092A0993F0
:10B410000AF1010A3FF652AF1AF8011F03EB83034A
:10B4200002EB4303A1F13002092AF5D9099345E75C
:10B4300000F018FEE0E600BF58ED000060ED0000EF
:10B4400064ED00000000000091B1000010B4054C54
:10B450008446134620685DF8044B0A466146FFF7B0
:10B46000BFBE00BF14FE000038B5074D074C2C1BB3
:10B47000A41005D0013C55F8043D9847002CF9D1A3
:10B48000BDE8384001F0DABD10FE00000CFE0000FF
:10B49000F8B50D461446064610B1036A002B37D0A6
:10B4A000A389A269A2601A0719D52369BBB12268D2
:10B4B0006169D31AEDB299422F4620DD0133A168AC
:10B4C0000139A160511C2160157062699A420DD04A
:10B4D000A389DB0701D50A2D08D03846F8BD2146DF
:10B4E000304601F0B5F838B92369E0E72146304627
:10B4F00000F072FE0028F0D04FF0FF37EDE7214654
:10B50000304600F069FE0028F6D122680123D6E714
:10B5100000F0A8FDC4E700BF10B4044C03460A467F
:10B5200020685DF8044B1946FFF7B2BF14FE000017
:10B530002DE9F0478F681D46AF420B680C46164652
:10B5400036D8B1F90CC01CF4906F0ED13D461846A8
:10B5500031462A4600F084FFA368DF1B2368A760FA
:10B560002B4400202360BDE8F0874A69096902EB9B
:10B5700042025F1A02EBD2726B1C52103B449342A0
:10B5800092BF914699461A461CF4806F804611D0AE
:10B59000114600F087FE824600B321693A46FFF764
:10B5A0007BFCA38923F4906343F08003A38105E02F
:10B5B0002F46CCE701F004F9824658B10AEB0703A5
:10B5C000A9EB0707A760C4F810A0C4F81490236083
:10B5D0002F46BCE72169404600F0E4FEA3890C2217
:10B5E00043F04003C8F800204FF0FF30A381BAE7D2
:10B5F0002DE9F04F9368176883B09246002B74D002
:10B600004FF0000B8B680A6881460C465D4645E0AA
:10B61000B4F90C3013F4906F2CD0D4E90401161A4D
:10B6200001EB410202EBD272711C5210294491428B
:10B6300092BF904688460A465B0539D51146484672
:10B6400000F030FE019000283DD032462169FFF71E
:10B6500023FCA289019B22F4906242F08002A28125
:10B660009819A8EB0606A660C4F814802361206030
:10B67000A8462E463246594600F0F2FEDAF8081087
:10B68000A3682268A3EB08033244491BA36022602D
:10B69000CAF8081049B3D7E900B5083798461046EC
:10B6A000002DF8D09D421E46B2D2A8462E46E1E7B4
:10B6B0000146484601F084F803460028D0D12169AC
:10B6C000484600F06FFEA3890C2243F04003C9F8FE
:10B6D00000204FF0FF30A38100220023CAF8082089
:10B6E000CAF8043003B0BDE8F08F00200023CAF888
:10B6F000043003B0BDE8F08F2DE9F04F1C468B8974
:10B700001D069DB088468146934603D50B69002BE4
:10B7100000F0F1800023099343F22003ADF82930B3
:10B720009BF800307D4D03940126002B73D0DA4640
:10B7300003E01AF8013F002B75D0252BF9D1BAEBA5
:10B740000B0473D19AF80020002A64D000234FF034
:10B75000FF32CDE905230AF1010A049307938DF81E
:10B7600053301A9305E0049A06FA03F31A4304923D
:10B77000A2465446052214F8011B284600F018FF83
:10B78000A346431B0028EED1049BD80644BF2022C9
:10B790008DF8532019079AF8001044BF2B228DF81A
:10B7A00053202A2950D1039A1168043200290392A8
:10B7B0007CDB07919AF801102E295BD0584C0322AC
:10B7C000204600F0F5FE38B1049B001B4022824069
:10B7D00013430BF1010B04931BF8011B51488DF827
:10B7E0002810062200F0E4FE002865D04E4B002B06
:10B7F00055D003AA00924D4B424604A94846AFF3E8
:10B80000008007467A1C06D0099B3B4409939BF8AD
:10B810000030002B8BD1B8F80C305B067AD4099835
:10B820001DB0BDE8F08FBAEB0B04F4D023465A46A6
:10B8300041464846FFF77CFE0130ECD0099B9AF860
:10B840000020234409937FE7A1F13002092A88BF31
:10B85000D346B1D8079B00E00134217803EB830382
:10B8600002EB4303A1F13002092AF5D92E290793EF
:10B87000A346A3D19BF801102A2927D1039B9BF84B
:10B8800002101A6805920433002A0BF10200039398
:10B89000B8BF4FF0FF338346B8BF05938EE7039BD5
:10B8A000073323F0070308330393ADE7494243F01E
:10B8B0000203079104937DE703AA00921B4B4246C3
:10B8C00004A9484601F040F807469BE7A1F1300281
:10B8D0000023092A05930BF1010B3FF66FAF1BF80C
:10B8E000011F03EB830302EB4303A1F13002092A9A
:10B8F000F5D9059362E7402100F0D4FCC8F80000B8
:10B90000C8F8100018B14023C8F8143002E70C231F
:10B91000C9F800304FF0FF3082E700BF58ED00005B
:10B9200060ED000064ED00000000000031B5000093
:10B930009368002B00F0F8802DE9F04FB1F90CC0AE
:10B940001CF0080F83B0904681460C4631D00B693D
:10B950007BB31CF00207D8F8006038D00027D4F879
:10B9600028B0216ADFF8C4A23D4655452B463A4629
:10B9700028BF53464846C5B1D847002840F3CA807F
:10B98000D8F808301B1A07442D1AC8F80830002BC5
:10B9900000F0B68055452B46D4F828B0216A28BF60
:10B9A00053463A464846002DE6D1D6E9007508369A
:10B9B000DBE72146484600F04BFE002840F0AF8010
:10B9C000B4F90CC0D8F800601CF00207C6D11CF016
:10B9D000010A63D12368A168574618468B46002F99
:10B9E00058D01CF4007F00F0B580B9420A4600F23E
:10B9F000E1801CF4906F2FD0216962695D1A02EB1F
:10BA0000420202EBD2726B1C52103B44934292BF33
:10BA100093469B461A461CF4806F00F0EA8011465C
:10BA2000484600F03FFC002800F0F9802A462169D2
:10BA30000090FFF731FAA289009B22F4906242F055
:10BA40008002A2815819ABEB0505C4F814B023613C
:10BA5000A5602060BB463A465146009200F000FDCA
:10BA6000A1682368009AA1EB0B011A443D46A1602E
:10BA700022600027D8F808305B1BAA44C8F80830B9
:10BA8000002B3DD02368A168B4F90CC018468B4642
:10BA9000002FA6D1D6E900A708369EE73846BB4658
:10BAA0003D460097002D41D0002846D0009A2068DE
:10BAB000A168D4E90473AA4228BF2A46B84204D92F
:10BAC00001EB030A524500F38580934275DC216A3D
:10BAD000A76A5A464846B847B0F1000A1ADD009BEB
:10BAE000B3EB0A0300930FD00120D8F80830A3EB82
:10BAF0000A03D344A5EB0A05C8F80830002BD1D1BE
:10BB0000002003B0BDE8F08F2146484600F064FBFA
:10BB10000028EAD0B4F90C3043F04003A3814FF081
:10BB2000FF3003B0BDE8F08F0020704775683346E2
:10BB30000836002DFAD0D3F800B02A460A2158461C
:10BB400000F036FD002867D00130A0EB0B03009316
:10BB50001A46ACE722699A4214D36269BA4211D8F4
:10BB60006FF00043BB4228BF3B46A56A93FBF2F34C
:10BB7000216A02FB03F348465246A847051EC9DD69
:10BB80007F1B77E7B94228BF39460D4618460A465B
:10BB9000514600F065FCA1682368491B2B44A16055
:10BBA00023600029ECD12146484600F015FB00280F
:10BBB000E6D0AFE7BB463A464EE75946019200F061
:10BBC0004FFC019AA3689B1AA36023681344236067
:10BBD000924684E75946524600F042FC236853449B
:10BBE00023602146484600F0F7FA00283FF477AF7B
:10BBF00090E7484600F0E4FD034600287FF422AFBA
:10BC00002169484600F0CEFBB4F90C300C22C9F88B
:10BC1000002023F080037FE76A1C009247E70C2294
:10BC2000B4F90C30C9F8002076E700BF00FCFF7FB4
:10BC300038B5C46B0CB1002038BD8021054600F03A
:10BC400031FB0246E86330B1031F7C3243F8044FF6
:10BC50009342FBD1EFE74FF0FF3038BD30B51F29DD
:10BC600083B0054608D8C36B0C4653B153F8240083
:10BC700043F8242003B030BD162303604FF0FF309B
:10BC8000F8E78021019200F00DFB019AE86303467A
:10BC90000028F3D0011F00F17C05002041F8040FBB
:10BCA000A942FBD1E2E700BF1F2938B505461ED8DF
:10BCB000C26B0C466AB152F8213053B1012B06D049
:10BCC000591C10D0002142F824102046984700202B
:10BCD00038BD284601F094F8224601462846BDE8C2
:10BCE000384001F077B816230360012038BD1623D1
:10BCF00003604FF0FF3038BD1F292AD838B5C36B19
:10BD00000C460546A3B153F8242003EB84034AB143
:10BD1000511C0BD0012A07D0002520461D609047FA
:10BD2000284638BD012038BD032038BD022038BD6B
:10BD3000802100F0B7FA0346E86338B1021F002102
:10BD40007C3042F8041F8242FBD1DCE74FF0FF3029
:10BD500038BD4FF0FF30704738B5134B1F281D68B2
:10BD60001DD8EA6B044662B152F820304BB1012B6A
:10BD700005D0591C0FD0002142F820109847002010
:10BD800038BD284601F03CF8224601462846BDE869
:10BD9000384001F01FB816232B60012038BD162350
:10BDA0002B604FF0FF3038BD14FE0000114B1F28F0
:10BDB00070B51E6808D8F36B04460D464BB153F8B6
:10BDC000240043F8245070BD162333604FF0FF3039
:10BDD00070BD8021304600F065FA0346F06300280C
:10BDE000F4D0021F00217C3042F8041F8242FBD1B4
:10BDF000E5E700BF14FE000038B50B4B1D68EC6B87
:10BE00000CB1002038BD8021284600F04BFAE863D1
:10BE100038B1031F00F17C0243F8044F9342FBD179
:10BE2000EFE74FF0FF3038BD14FE000038B5174B78
:10BE30001F281D6826D80446E86BA0B150F82430AE
:10BE400000EB84004BB15A1C0BD0012B07D000250E
:10BE5000056020469847284638BD012038BD03209C
:10BE600038BD022038BD8021284600F01BFAE86367
:10BE700040B1031F00F17C01002243F8042F8B42E4
:10BE8000FBD1DBE74FF0FF3038BD00BF14FE0000F0
:10BE900000207047024A0349034800F061BB00BF1D
:10BEA00064FE0000D9C1000018FE00000C4B416880
:10BEB000994210B5044601D000F08EF9A168094BF3
:10BEC000994202D0204600F087F9E168064B99427A
:10BED00004D02046BDE8104000F07EB910BD00BF80
:10BEE00064400100CC400100344101000020704753
:10BEF0002DE9F8432A4C2B49DFF8BC90DFF8BC80D1
:10BF0000294FC4F83811002504230822294604F1DA
:10BF10005C00264EE360C4E90055C4E90455A56001
:10BF20006566A561FEF766FF214B63670822294617
:10BF300004F1C400C4E90849C4E90A87C4E91A55F0
:10BF4000C4E91E552567C4F8CC50C4F88050266358
:10BF5000FEF750FF174BC4F8DC30294604F16803A4
:10BF6000082204F59670C4F88830C4E92398C4E91F
:10BF70002576C4E93455C4E93855C4F8D850C4F816
:10BF80003451C4F8E850FEF735FF04F1D003C4E99A
:10BF90003D98C4E93F76C4F8F030BDE8F88300BFAF
:10BFA0006440010095BE000099CD0000BDCD0000A9
:10BFB000090001001200020031CD000059CD00003F
:10BFC000F8B5254BD3F838310646002B3CD0234F2B
:10BFD000D7E90134013B04D51DE05A1C04F1680483
:10BFE00019D0B4F90C50013B002DF6D11C4BE36085
:10BFF000C4E90155C4E9045565662560A5610822B8
:10C00000294604F15C00FEF7F5FEC4E90D55C4E9CC
:10C0100012552046F8BD3D680DB12F46D8E74FF4C4
:10C02000D671304600F03EF9044680B10423C0E9E1
:10C0300000530C302946A0604FF4D0722546FEF71D
:10C04000D9FE3C602F46C3E7FFF752FFBFE70C2342
:10C0500038603360DDE700BF6440010064FE00002B
:10C060000100FFFF036A03B17047044B044AD3F891
:10C0700038310262002BF7D13AE700BF644001007B
:10C08000ADBE0000704700BF704700BF024A0349C1
:10C09000002000F065BA00BF64FE000091BE000001
:10C0A000024A0349002000F05BBA00BF64FE0000B2
:10C0B000EDBE0000B1F90C302DE9F0411E070C4631
:10C0C00080463DD44A68002A56DDE56A002D34D00A
:10C0D0000022D8F80060C8F8002013F48052216ACA
:10C0E00057D101234046A847451C024666D0B4F903
:10C0F0000C30E56A216A580705D56368D21A636B6C
:10C100000BB1236CD21A00234046A847431C42D0EF
:10C110000023636023692360A389DF0400D5606581
:10C12000616BC8F8006041B104F14403994202D048
:10C13000404600F037F9002363630020BDE8F0813A
:10C140000E69002EF9D09B070D6808BF4B690E6081
:10C1500018BF0023AD1B8B600BE02B463246216AD3
:10C16000A76A4046B847B0F1000CA5EB0C05664441
:10C1700006DD002DF1DCE0E70A6C002AA5DCDCE737
:10C18000B4F90C3043F04003A3814FF0FF30BDE819
:10C19000F081626DAFE7D8F80010B4F90C301D29BA
:10C1A000F0D80C4ACA40D507ECD52269226000229B
:10C1B0006260DA04B4D50029B1D0B1E7D8F8003014
:10C1C000002B94D01D2B01D0162BD9D1C8F80060BC
:10C1D000B3E700BF010040200B69B3B110B50446BE
:10C1E00082B008B1036A5BB1B1F90C3013B9002019
:10C1F00002B010BD204602B0BDE81040FFF75ABFA4
:10C200000191FFF72FFF0199EEE70020704700BF73
:10C21000B8B138B50D4A0369156804462BB10DB1A4
:10C220002B6A53B1B4F90C300BB9002038BD21464C
:10C230002846BDE83840FFF73DBF2846FFF712FF0C
:10C24000F0E7034A0349044800F08AB914FE0000ED
:10C2500064FE0000D9C1000018FE000070B5104E49
:10C26000336805460C46B3B12146284600F04EFD22
:10C27000431C0CD0C41C24F00304A04205D0211A96
:10C28000284600F043FD013001D0204670BD4FF03C
:10C29000FF34204670BD194600F038FD3060E3E7FA
:10C2A000A04101002DE9F843CD1C25F00305083518
:10C2B0000C2D38BF0C25002D064618DBA94216D8D8
:10C2C000DFF8DC8000F082FCD8F80420A2B114462C
:10C2D00003E0636822467BB11C4623685B1BF8D4ED
:10C2E0000B2B1FD89442636854D053600CE00C238E
:10C2F00033600020BDE8F88329463046FFF7AEFFE3
:10C30000431C044619D00560304600F061FC04F17E
:10C310000B00231D20F00700C21A1CBF1B1AA350DC
:10C32000BDE8F88361199442256014BF5160C8F8D4
:10C330000410635163684B60E6E7D8F804701FB3DC
:10C340003C467F68002FFBD123683946304604EB1A
:10C35000030900F0DBFC814516D12368ED1A29465C
:10C360003046FFF77BFF01300ED02368D8F8042059
:10C370002B442360536883B1A34203D01A465B6801
:10C380009C42FBD10023B0E70C233360304600F021
:10C390001FFCAEE7C8F80430B6E7C8F80470B3E78E
:10C3A000A0410100002950D038B551F8043C0C1FC1
:10C3B000002BB8BFE418054600F008FC274A1368B4
:10C3C0002BB1A3420CD92168601883422CD0636042
:10C3D00028461460BDE8384000F0FABBA3420FD8ED
:10C3E0001A465B68002BF9D111685018844217D0A7
:10C3F0002CD3636054602846BDE8384000F0E8BBA9
:10C4000011685018A04214D020D8216860188342C7
:10C41000EFD118685B680844C4E900035460EAE798
:10C4200023680B441360E6E718685B6808442060E3
:10C43000CDE720680144501883421160DBD1D3E975
:10C4400000040144C2E90014D5E770470C232B60B7
:10C450002846BDE8384000F0BBBB00BFA441010046
:10C4600088420ED98B1883420BD900EB020C002AAC
:10C470006ED0624613F801CD02F801CD9942F9D190
:10C4800070470F2A0FD8034602F1FF3C002A5FD005
:10C490000CF1010C013B8C4411F8012B03F8012F26
:10C4A0006145F9D1704740EA01039B0751D1A2F1E0
:10C4B000100370B501F1200C23F00F0501F1100EEF
:10C4C00000F11004AC441B095EF8105C44F8105CE9
:10C4D0005EF80C5C44F80C5C5EF8085C44F8085CA0
:10C4E0005EF8045C44F8045C0EF1100EE64504F1BD
:10C4F0001004E9D1013312F00C0F01EB031102F02B
:10C500000F0400EB031328D0043C24F003064FEA89
:10C51000940C1E441C1F8E465EF8045B44F8045FB6
:10C52000B442F9D10CF1010402F0030203EB8403DD
:10C5300001EB840102F1FF3C4AB10CF1010C013B1B
:10C540008C4411F8012B03F8012F6145F9D170BD1E
:10C55000704702F1FF3C03469AE72246EAE700BF34
:10C560002DE9F8430746884616464FF00009D6E9FC
:10C570000154013D10D4A389012B08D9B4F90E3020
:10C5800001332146384602D0C04749EA0009013D3F
:10C590006B1C04F16804EED13668002EE7D14846E2
:10C5A000BDE8F8830000000000000000000000006B
:10C5B00001F0FF01102A2BDB10F0070F08D010F854
:10C5C000013B013A8B422DD010F0070F42B3F6D158
:10C5D000F0B441EA012141EA014122F007047FF071
:10C5E00000070023F0E80256083C85EA010586EAC8
:10C5F000010685FA47F5A3FA87F586FA47F6A5FA04
:10C6000087F68EB9EED1F0BC01F0FF0102F007020F
:10C6100032B110F8013B013A83EA010313B1F8D1BA
:10C620000020704701387047002D06BF354603389B
:10C63000073815F0010F07D1013015F4807F02BFD4
:10C64000013015F4C03F0130F0BC0138704700BF25
:10C6500038B52F4B1B6805460C4613B11A6A002AE1
:10C660004BD0B4F90C3018071CD5226922B313F053
:10C67000010107D0616900204942A060A1613AB17F
:10C68000002038BD980758BF6169A160002AF7D122
:10C69000190658BF1046F4D543F04003A3814FF06C
:10C6A000FF3038BDD9062CD55A0712D4226943F081
:10C6B0000803A381002ADAD103F42071B1F5007FC9
:10C6C000D5D02146284600F085FAB4F90C3022690D
:10C6D000CDE7616B51B104F14402914204D0284688
:10C6E000FFF760FEB4F90C3000226263226900217A
:10C6F000C4E9002123F02403D9E71846FFF7B2FC70
:10C70000AFE7092243F040032A60A381C7E700BFD7
:10C7100014FE0000F0B5264C256883B006460F468F
:10C7200005B36C681F2C3FDCA6B1D5F8880048B370
:10C73000D0F8001140F824204FF0010C0CFA04FC52
:10C7400000EB84024CEA0101022EC0F80011C2F88D
:10C75000803010D0A31C01346C6045F82370002099
:10C7600003B0F0BD13481449216010B10068C1F84E
:10C770008800114DD5E7D0F8043143EA0C03C0F826
:10C780000431E7E70D49CDE9002369B14FF4847026
:10C79000AFF3008040B10021C0E94011DDE9002382
:10C7A0006C68C5F88800C5E74FF0FF30D8E700BFD8
:10C7B0003442010000000000A84101000000000018
:10C7C0002DE9F041144641B30AB306460D4600F088
:10C7D000F9FA8442074602D8B4EB500F13D8214629
:10C7E0003046FFF75FFD804650B1BC4222462946E5
:10C7F00028BF3A46FEF750FB29463046FFF7D2FDE8
:10C800004046BDE8F081A8464046BDE8F081A0461C
:10C81000FFF7C8FD4046BDE8F081BDE8F041114694
:10C82000FFF740BD2DE9F84F92461F460A698B6815
:10C83000DDF828909A42B8BF1A46CAF8002091F84D
:10C8400043300C46064613B10132CAF80020226874
:10C8500091065FD5DAF800300233CAF8003022685A
:10C8600012F0060F11461DD1E1689942D8BF11465A
:10C8700018DD4FF0000804F1190B05E0E568DAF85F
:10C880000030ED1A45450CDD01235A463946304645
:10C89000C847013008F10108F0D14FF0FF30BDE882
:10C8A000F88F216894F84330003B18BF01238A06B3
:10C8B0000AD5E1185A1C302081F84300224494F82C
:10C8C000451082F84310023304F1430239463046E2
:10C8D000C8470130E1D02368DAF80050216903F03D
:10C8E0000603042BD4E902201BD08A4220DD4FF03E
:10C8F0000008521A90441A34002501E0454517DA21
:10C900000123224639463046C847013005F101056A
:10C91000F4D1C2E712F0060F0DD0003B18BF01237F
:10C92000D2E7401B8A4220EAE078E2DC0028E2DC21
:10C930000020BDE8F88FE168DAF800309942D8BFEE
:10C94000114696DCAEE700BF2DE9F047174684B0EC
:10C950000A7E0C9D0C460646984601F1430C002ABF
:10C9600035D0A2F15803D9B2202969D8202B67D835
:10C97000DFE813F0E6006600660066006600660009
:10C9800066006600660066006600AC007000660027
:10C99000660066006600700066006600660066005D
:10C9A00021008300C60066006600B60066008300B2
:10C9B00066006600EC002B6822686169181D28601B
:10C9C00010061B6802D4520600F1E08019600023B3
:10C9D000E1462361CDF800803B4603AA214630465C
:10C9E000FFF720FF013020D023694A463946304600
:10C9F000C047013019D02368E068DDF80C909B0730
:10CA000018D5484516DD002504F1190A04E0E06850
:10CA1000A0EB0903AB420DDD0123524639463046F7
:10CA2000C047013005F10105F1D14FF0FF3004B0EE
:10CA3000BDE8F0874845B8BF484604B0BDE8F08778
:10CA400084F84220012004F142090023206184F887
:10CA50004330BFE72A682368111D1806296002D4F5
:10CA6000590600F195801068014600286268C0F2FE
:10CA7000938054484FF00A0E15E020682B6810F0A0
:10CA8000800F53F8041B02D1400648BF89B26F2AB9
:10CA90004C482B6014BF4FF00A0E4FF0080E0023D5
:10CAA000626884F84330002AA26051DB236823F0D7
:10CAB0000403236000294BD1002A7BD1E146BEF15B
:10CAC000080F56D0ACEB0903236183E72B681A6883
:10CAD00004332B6004F1420984F842200120B4E7BA
:10CAE0002B686268191D2960D3F800900021484620
:10CAF000FFF75EFD002863D0A0EB09006060A4E7AB
:10CB0000236843F02003236078222F4884F84520CF
:10CB10002A6813F0800F52F8041B03D113F0400F62
:10CB200018BF89B22A60DA0744BF43F020032360AC
:10CB300019B9236823F0200323604FF0100EAEE7ED
:10CB4000582384F845301F482368E1E72368DBE772
:10CB50007546E146B1FBF5F305FB131A0A46AA42F6
:10CB600010F80A1009F8011D1946F3D2BEF1080F9A
:10CB7000A8D12368DD07A5D5626823699A42A1DCA4
:10CB8000302309F8013C09F1FF399BE719801EE7C2
:10CB9000B2F90010084668E72D20002AA26084F848
:10CBA000430002DB23F0040323600A2505484942C1
:10CBB000AE46CEE7037884F8423004F142097EE7BE
:10CBC000606842E76CED000080ED0000704700BF38
:10CBD000704700BF70B5B1F90C300C46990796B09C
:10CBE00007D504F147030122C4E90432236016B0DB
:10CBF00070BDB4F90E100029054629DB6A4600F025
:10CC00008BF9002822DB4FF480612846019EFFF754
:10CC100049FB88B3A389206043F0800306F4704683
:10CC2000A381B6F5005F4FF48063C4E90403DED14D
:10CC3000B4F90E10284600F057F80028D7D0A38981
:10CC400023F0030343F00103A381D0E7B4F90C30D0
:10CC500013F0800F14BF40264FF4806631462846FB
:10CC6000FFF720FB40B1A389206043F08003C4E9B3
:10CC70000406A38116B070BDB4F90C309A05B6D481
:10CC800023F0030304F1470243F002030121C4E946
:10CC90000421A3812260AAE770B50C46B1F90E10F9
:10CCA000002996B015461E460FDB6A4600F034F99F
:10CCB00000280ADB019B03F47043A3F50053B3FA89
:10CCC00083F34FF480625B0908E0A28912F0800FC1
:10CCD0004FF0000314BF40224FF480620020336005
:10CCE0002A6016B070BD00BF38B5074D002204465B
:10CCF00008462A6000F06AF9431C00D038BD2B6852
:10CD0000002BFBD0236038BD3842010038B5074DF9
:10CD10000022044608462A6000F078F9431C00D03F
:10CD200038BD2B68002BFBD0236038BD3842010092
:10CD300010B50C46B1F90E1000F0D8F8002803DB4E
:10CD4000636D0344636510BDA38923F48053A381FD
:10CD500010BD00BF002070472DE9F0410C46B1F92D
:10CD60000C101F46CB05054616460BD421F4805106
:10CD7000A1813B46B4F90E1032462846BDE8F04189
:10CD800000F0F6B8B4F90E100223002200F0DAF831
:10CD9000B4F90C10EAE700BF10B50C46B1F90E105B
:10CDA00000F0D0F8B4F90C30421C0EBF23F48053CD
:10CDB00043F480536065A38110BD00BFB1F90E102C
:10CDC00000F020B851F8043C181F002BBCBF0B58D2
:10CDD000C018704770B50C46084D03460026204623
:10CDE00011461C462E6000F0F9F8431C00D070BDBF
:10CDF0002B68002BFBD0236070BD00BF38420100C0
:10CE000000F0DCB838B5074D0022044608462A6019
:10CE100000F0C4F8431C00D038BD2B68002BFBD0B9
:10CE2000236038BD384201002DE9F04FDFF8B8909B
:10CE3000D9F8006083B0002E34D088460190756820
:10CE4000D6F888706C1E2DD4013506EB850507F1E8
:10CE5000800BB8F1000F28D173682A68013BA34208
:10CE600016BF002374602B60BAB1D6F804A06FB36C
:10CE7000D7F800110123A3400B4227D0D7F80401B3
:10CE800057F8241003422BD1019890477368D9F8C2
:10CE90000020534520D1B2421ED1013C631CA5F1B4
:10CEA0000405D6D103B0BDE8F08F57B15BF824304C
:10CEB0004345D1D0013C621CA5F10405F2D0002FFE
:10CEC000F4D1013CEED3013CFBD2EBE79047736811
:10CED000D9F800205345DED0002AE3D01646AEE74D
:10CEE00008469047D2E700BF3442010038B50C46EF
:10CEF000084D8446114620461A4600232B6064469E
:10CF000000F07CF8431C00D038BD2B68002BFBD010
:10CF1000236038BD3842010070B50C46084D034609
:10CF20000026204611461C462E6000F03FF8431CA8
:10CF300000D070BD2B68002BFBD0236070BD00BFFC
:10CF40003842010038B50C46084D8446114620464B
:10CF50001A4600232B60644600F048F8431C00D0BA
:10CF600038BD2B68002BFBD0236038BD3842010050
:10CF700038B50C46084D8446114620461A46002313
:10CF80002B60644600F050F8431C00D038BD2B687D
:10CF9000002BFBD0236038BD38420100024B5822E1
:10CFA0001A604FF0FF30704738420100024B5822A0
:10CFB0001A604FF0FF30704738420100024B582290
:10CFC0001A604FF0FF30704738420100024B582280
:10CFD0001A600020704700BF38420100024B5822FF
:10CFE0001A604FF0FF30704738420100024B582260
:10CFF0001A604FF0FF30704738420100024B582250
:10D000001A604FF0FF30704738420100044A05496A
:10D010001368002B08BF0B46184410601846704771
:10D020003C42010040420100024B58221A604FF07E
:0CD03000FF30704738420100FEE700BFEF
:0CD03C00F8B500BFF8BC08BC9E46704769
:10D04800636D645F627566206F766572666C6F7774
:10D0580020617420706F733D2575004F50414C005E
:10D0680053657373696F6E206F70656E3A20545004
:10D0780045525F534E3D30782530386C5800636F09
:10D08800756C64206E6F74206C6F636174652054D6
:10D09800534E20696E2053746172745365737369BB
:10D0A8006F6E20726573706F6E7365006472697657
:10D0B800652072657475726E656420737461747529
:10D0C800732030782530325800454E444F4644414D
:10D0D8005441206E6F7420666F756E6420696E20EF
:10D0E800726573706F6E73650049462D53454E44E3
:10D0F800206661696C656420286572723D25642923
:10D108000049462D52454356206661696C65642086
:10D11800286572723D256429006F70616C5F6465D3
:10D12800765F696E69743A20696E76616C6964200D
:10D138007472616E73706F727420284E554C4C2057
:10D1480063616C6C6261636B7329006F70616C5F03
:10D158006465765F696E69743A206F70616C5F61AF
:10D168006C6C6F63206661696C6564006F70616CDC
:10D178005F6465765F696E69743A206F70616C5F91
:10D188006D757465785F6372656174652066616941
:10D198006C6564006F70616C5F64657620696E69A8
:10D1A8007469616C697365642028686F73745F7350
:10D1B8006E3D30782530386C582900310064697329
:10D1C800636F766572792049462D53454E442F4941
:10D1D800462D52454356206661696C6564004C6F64
:10D1E800636B696E6720666561747572653A206560
:10D1F8006E61626C65643D2575206C6F636B656458
:10D208003D2575206D62723D2575004F50414C20BB
:10D218005353432076313A20626173655F636F6DC3
:10D228005F69643D307825303458206E756D3D2532
:10D2380075004F50414C205353432076323A2062B8
:10D248006173655F636F6D5F69643D307825303465
:10D2580058206E756D3D2575006472697665206489
:10D268006F6573206E6F742061647665727469737C
:10D2780065204F50414C20535343207631206F7224
:10D2880020763200646973636F7665727920636F04
:10D298006D706C65746520E28094204F50414C207D
:10D2A8007625732C20436F6D49443D307825303402
:10D2B800582C206C6F636B65643D25750050494E92
:10D2C800206C656E677468202575206578636565D0
:10D2D8006473204F50414C5F4D41585F50494E5F39
:10D2E8004C454E2028257529006F70616C5F646974
:10D2F80073636F7665722829206D75737420626573
:10D308002063616C6C6564206265666F7265206F6E
:10D3180070656E696E6720612073657373696F6EDF
:10D3280000612073657373696F6E20697320616C87
:10D338007265616479206F70656E20E28094206365
:10D34800616C6C206F70616C5F656E645F73657390
:10D3580073696F6E206669727374006F70616C5FB9
:10D36800656E645F73657373696F6E3A206E6F20C4
:10D3780073657373696F6E206973206F70656E00D3
:10D3880073657373696F6E20636C6F736564207364
:10D3980075636365737366756C6C79007365737315
:10D3A800696F6E20636C6F73652072657475726E39
:10D3B8006564206572726F72202564202873746119
:10D3C800746520726573657420616E797761792957
:10D3D800006F70616C5F6465765F64657374726F0B
:10D3E800792063616C6C6564207769746820736563
:10D3F8007373696F6E207374696C6C206F70656EDF
:10D4080020E2809420656E64696E6720736573738B
:10D41800696F6E006F70616C5F6465762064657318
:10D4280074726F796564006F70616C5F61637469B1
:10D43800766174655F6C6F636B696E675F73703A72
:10D4480020726571756972657320616E206F7065F1
:10D458006E2041646D696E53502073657373696FF4
:10D468006E004C6F636B696E67535020616374691B
:10D478007661746564207375636365737366756C30
:10D488006C7900594553004E4F00E29480E2948035
:10D49800E29480204F50414C20446973636F766555
:10D4A80072792053756D6D61727920E29480E294EF
:10D4B80080E29480E29480E29480E29480E2948016
:10D4C800E29480E29480E29480E29480E29480E2A4
:10D4D8009480E29480E29480E29480E29480E294E2
:10D4E80080E29480E29480E29480E29480E29480E6
:10D4F8000020204F50414C205353432076312020A8
:10D508002020202020203A2025730020204F504141
:10D518004C205353432076322020202020202020E6
:10D528003A2025730020204261736520436F6D49BE
:10D53800442020202020202020203A203078253028
:10D5480034580020204E756D20436F6D4944732078
:10D5580020202020202020203A2025750020204C43
:10D568006F636B696E6720737570706F7274656432
:10D5780020203A2025730020204C6F636B696E676A
:10D5880020656E61626C6564202020203A20257336
:10D5980000202043757272656E746C79206C6F631D
:10D5A8006B65642020203A2025730020204D4252CC
:10D5B80020736861646F7720656E61626C656420B2
:10D5C8003A20257300E29480E29480E29480E29409
:10D5D80080E29480E29480E29480E29480E29480F5
:10D5E800E29480E29480E29480E29480E29480E283
:10D5F8009480E29480E29480E29480E29480E294C1
:10D6080080E29480E29480E29480E29480E29480C4
:10D61800E29480E29480E29480E29480E29480E252
:10D628009480E29480E29480E29480E29480E29490
:10D6380080E29480E29480E29480E29480E2948094
:10D64800E29480E29480E29480E29480E29480E222
:10D658009480E29480E29480E29480004552525F84
:10D66800554E4B4E4F574E004552525F54494D450B
:10D678004F5554004552525F504152414D0045525A
:10D68800525F4C4F434B4544004552525F415554FD
:10D6980048004552525F50524F544F004552525F16
:10D6A8004E4F5F4D454D004552525F5452414E53C7
:10D6B800504F5254004F4B005B25735D5B25735DE3
:10D6C8002025730D0A004672656552544F53206831
:10D6D8006561702065786861757374656420E2809F
:10D6E800942068616C74696E67004672656552546F
:10D6F8004F5320737461636B206F766572666C6F2D
:10D708007720696E207461736B202725732720E2C8
:10D7180080942068616C74696E67004552522000DD
:10D728005741524E00494E464F0044424720006F31
:10D7380070616C5F7472616E73706F72745F68771A
:10D748005F696E6974206661696C6564006F7061F9
:10D758006C5F6465765F696E6974206661696C6583
:10D7680064006F70616C5F646973636F76657220C3
:10D778006661696C65643A202573006F70616C5F3F
:10D7880073746172745F61646D696E5F73657373DE
:10D79800696F6E206661696C65643A202573004183
:10D7A800646D696E2073657373696F6E206F706541
:10D7B8006E6564207375636365737366756C6C79E5
:10D7C800004661696C656420746F206372656174DA
:10D7D80065204F50414C207461736B006F70616C11
:10D7E8005F68775F726563763A20696E76616C6907
:10D7F80064207472616E73706F727420636F6E74DC
:10D80800657874206F7220627566666572006F7045
:10D81800616C5F68775F73656E643A20696E7661E4
:10D828006C6964207472616E73706F727420636FB8
:10D838006E74657874206F72206275666665720012
:10D848006F70616C5F7472616E73706F72745F6811
:10D858007720696E697469616C697A656420696E9C
:10D868002073696D756C6174696F6E206D6F646586
:10D87800006F70616C5F7472616E73706F72745F49
:10D888006877206465696E697469616C697A656432
:10D8980000785461736B002E2E2F467265655254C2
:10D8A8004F532D4B65726E656C2F7461736B732EBD
:10D8B800630075785072696F72697479203C20280A
:10D8C80020372029002820282075696E7433325F9C
:10D8D8007420292028207078546F704F6653746123
:10D8E800636B202D2070784E65775443422D3E702F
:10D8F80078546F704F66537461636B202920292018
:10D908003C202820282075696E7433325F742029E2
:10D91800207578537461636B4465707468202900BE
:10D92800707854434220213D202828766F6964206E
:10D938002A2930290075785363686564756C6572A7
:10D9480053757370656E646564203D3D20300049F1
:10D95800444C45007852657475726E20213D20282C
:10D96800202D3120290028202820282028207078E0
:10D9780044656C617965645461736B4C6973742098
:10D98800292D3E75784E756D6265724F66497465CE
:10D998006D73203D3D202820554261736554797090
:10D9A800655F74202920302029203F202820282046
:10D9B80042617365547970655F742029203120298C
:10D9C800203A202820282042617365547970655FC9
:10D9D80074202920302029202920290075785363B4
:10D9E800686564756C657253757370656E6465649B
:10D9F80020213D20305500707850726576696F752A
:10DA08007357616B6554696D650028207854696D9A
:10DA180065496E6372656D656E74203E20305520D1
:10DA2800290075785363686564756C6572537573FE
:10DA380070656E646564203D3D20315500282028BE
:10DA480020262820707852656164795461736B735D
:10DA58004C697374735B207578546F705072696F7A
:10DA680072697479205D202920292D3E75784E75BC
:10DA78006D6265724F664974656D732029203E207A
:10DA8800300070784576656E744C697374007078F0
:10DA9800556E626C6F636B656454434200707854D2
:10DAA800696D654F75740070785469636B73546F52
:10DAB80057616974007078544342203D3D20707866
:10DAC80043757272656E74544342007078544342D1
:10DAD8002D3E75784D75746578657348656C64007E
